:100000000C9434000C9451000C9451000C94510049
:100010000C9451000C9451000C9451000C9451001C
:100020000C9451000C9451000C9451000C9451000C
:100030000C9451000C9451000C9451000C945100FC
:100040000C9413010C9451000C9451000C94510029
:100050000C9472010C9451000C9451000C945100BA
:100060000C9451000C94510011241FBECFEFD8E026
:10007000DEBFCDBF12E0A0E0B1E0EEE5F9E202C0E4
:1000800005900D92A834B107D9F726E0A8E4B2E0B4
:1000900001C01D92AC38B207E1F70E94C8010C9470
:1000A000AD140C94000000919805039500939805F9
:1000B000E091AD05F091AE05C191CDBFD191DEBF0C
:1000C0000F910FBFFF91EF91DF91CF91BF91AF9152
:1000D0009F918F917F916F915F914F913F912F9160
:1000E0001F910F91FF90EF90DF90CF90BF90AF9056
:1000F0009F908F907F906F905F904F903F902F9048
:100100001F900F9008950F921F922F923F924F923F
:100110005F926F927F928F929F92AF92BF92CF9297
:10012000DF92EF92FF920F931F932F933F934F9382
:100130005F936F937F938F939F93AF93BF93CF936F
:10014000DF93EF93FF930FB70F93E091BB05F0910F
:10015000BC05CDB7C193DEB7D19300919D05009347
:100160009E05E091AD05F091AE05E093BB05F093DF
:10017000BC05C191CDBFD191DEBF0F910FBFFF91E3
:10018000EF91DF91CF91BF91AF919F918F917F912F
:100190006F915F914F913F912F911F910F91FF9020
:1001A000EF90DF90CF90BF90AF909F908F907F9017
:1001B0006F905F904F903F902F901F900F900895F9
:1001C00000919D0500939E05E091AD05F091AE056F
:1001D000E093BB05F093BC05C191CDBFD191DEBFCB
:1001E0000F910FBFFF91EF91DF91CF91BF91AF9131
:1001F0009F918F917F916F915F914F913F912F913F
:100200001F910F91FF90EF90DF90CF90BF90AF9034
:100210009F908F907F906F905F904F903F902F9026
:100220001F900F9008950F921F922F923F924F921E
:100230005F926F927F928F929F92AF92BF92CF9276
:10024000DF92EF92FF920F931F932F933F934F9361
:100250005F936F937F938F939F93AF93BF93CF934E
:10026000DF93EF93FF930FB700680F930091BA05E8
:1002700003950093BA05013041F4CDB7DEB7E091A4
:10028000BB05F091BC05C193D19309ED06BD7894EF
:100290000E94D30E00000E941E0C0F910FBFFF9111
:1002A000EF91DF91CF91BF91AF919F918F917F910E
:1002B0006F915F914F913F912F911F910F91FF90FF
:1002C000EF90DF90CF90BF90AF909F908F907F90F6
:1002D0006F905F904F903F902F901F900F900895D8
:1002E000A89508950F921F922F923F924F925F927E
:1002F0006F927F928F929F92AF92BF92CF92DF9236
:10030000EF92FF920F931F932F933F934F935F931F
:100310006F937F938F939F93AF93BF93CF93DF930D
:10032000EF93FF930FB700680F930091BA05039501
:100330000093BA05789420E031E00E9471042317FD
:10034000E1F70E941E0C0F910FBFFF91EF91DF911B
:10035000CF91BF91AF919F918F917F916F915F915D
:100360004F913F912F911F910F91FF90EF90DF9050
:10037000CF90BF90AF909F908F907F906F905F9045
:100380004F903F902F901F900F90089523950895C0
:10039000CF93DF93CDB7DEB70E947F070E94320B69
:1003A00080E090E00E94880F9093CE038093CD036D
:1003B00080E090E00E94880F9093D4038093D30351
:1003C00081E090E00E94C910909396048093950478
:1003D00080E090E00E94880F9093D0038093CF0339
:1003E00020E046E955E060E070E08CEF91E00E948B
:1003F000D3110E94DA0CFFCFCF93DF9300D0CDB79B
:10040000DEB79A8389830E94250D28E044E554E0F5
:1004100060E070E086E392E00E94D31124E146E5BB
:1004200055E060E070E087EB92E00E94D3112AE093
:1004300046E155E060E070E088E194E00E94D3116D
:100440002EE144E954E060E070E08FE794E00E9420
:10045000D3111092A1051092A2051092A30510923B
:10046000A40588EC90E00E946312F3CFCF93DF9352
:10047000CDB7DEB76F970FB6F894DEBF0FBECDBF16
:100480009F8F8E8F82E089838981882F90E09B8364
:100490008A8383E08C8381E08D838D81882F90E037
:1004A0009C018091CD039091CE03B9010E948810E8
:1004B000CE01069622E1E4E0F1E0DC0101900D922C
:1004C0002A95E1F78091D3039091D4039E012A5F8E
:1004D0003F4FB9010E94881088EE93E00E9463129A
:1004E0008C81882F90E09C018091CD039091CE0368
:1004F000B9010E948810CE01069624E1E6E1F1E000
:10050000DC0101900D922A95E1F78091D30390913F
:10051000D4039E012A5F3F4FB9010E94881088EEE4
:1005200093E00E9463128981882F90E09C01809162
:10053000CD039091CE03B9010E948810CE0106969A
:1005400026E1EAE2F1E0DC0101900D922A95E1F763
:100550008091D3039091D4039E012A5F3F4FB9014C
:100560000E94881088EE93E00E94631296CFCF938A
:10057000DF93CDB7DEB762970FB6F894DEBF0FBE3C
:10058000CDBF9A8B898B84E190E09A87898728EC8C
:1005900030E089859A85A901481B590BCA019C87BF
:1005A0008B878091CD039091CE030E945B0F8D8746
:1005B0008D85882F90E08230910509F4ACC083309E
:1005C000910509F456C08130910509F0EEC08DEC1B
:1005D0009CECACECBDE389839A83AB83BC8386E659
:1005E00096E6A6E6BFE38D839E83AF83B8878E85AC
:1005F000882F90E02F853889B9010E94A61485E2E2
:1006000090E025E230E0F90120812062FC012083A6
:1006100020E030E048E453E469817A818B819C8159
:100620000E940714DC01CB01BC01CD010E942513FF
:10063000DC01CB010E94631285E290E0FC01808125
:1006400085E290E0FC01108220E030E048E453E4D1
:100650006D817E818F8198850E940714DC01CB011A
:10066000BC01CD010E942513DC01CB010E94631265
:10067000DEC08E85882F90E02F853889B9010E94D1
:10068000A6148DEC9CECACE4BEE389839A83AB8327
:10069000BC838DEC9CECACE4BEE38D839E83AF8386
:1006A000B88785E290E025E230E0F9012081206200
:1006B000FC01208320E030E048E453E469817A8142
:1006C0008B819C810E940714DC01CB01BC01CD0110
:1006D0000E942513DC01CB010E94631285E290E0A9
:1006E000FC01808185E290E0FC01108220E030E096
:1006F00048E453E46D817E818F8198850E940714C0
:10070000DC01CB01BC01CD010E942513DC01CB0132
:100710000E9463128CC08AE999E9A9E9BFE3898341
:100720009A83AB83BC838AE999E9A9E9BFE38D8306
:100730009E83AF83B88785E290E025E230E0F9013F
:1007400020812062FC01208320E030E048E453E473
:1007500069817A818B819C810E940714DC01CB0125
:10076000BC01CD010E942513DC01CB010E94631264
:1007700085E290E0FC01808185E290E0FC0110823E
:1007800020E030E048E453E46D817E818F819885DC
:100790000E940714DC01CB01BC01CD010E9425138E
:1007A000DC01CB010E94631242C08E85882F90E04D
:1007B0002F853889B9010E94A61485E290E025E2D0
:1007C00030E0F90120812062FC01208320E030E04C
:1007D00048E453E469817A818B819C810E940714EB
:1007E000DC01CB01BC01CD010E942513DC01CB0152
:1007F0000E94631285E290E0FC01808185E290E036
:10080000FC01108220E030E048E453E46D817E81F9
:100810008F8198850E940714DC01CB01BC01CD01BA
:100820000E942513DC01CB010E9463120000B9CEA7
:10083000CF93DF93CDB7DEB7A0970FB6F894DEBFA6
:100840000FBECDBF98A38F8F19828091D303909153
:10085000D4039E012A5F3F4FA90160E070E00E942F
:10086000C60F9B838A832A813B81CE010796B901FB
:100870000E94A61488E190E09D838C830E947201FF
:10088000198224C085E290E025E230E0F901208160
:100890002061FC01208380919504909196049E0133
:1008A0002A5F3F4FA90160E070E00E94071185E2D6
:1008B00090E0FC01808185E290E0FC01108281E003
:1008C00090E00E94631289818F5F89838981282F3C
:1008D00030E08C819D8128173907A0F20E94C60163
:1008E000B4CFCF93DF93CDB7DEB7809195049091CD
:1008F00096040E9490110000DF91CF910895CF924D
:10090000DF92EF92FF920F931F93CF93DF93CDB7B8
:10091000DEB7E1970FB6F894DEBF0FBECDBF99AB3F
:1009200088ABF8948AE790E02AE730E0F90120816B
:100930002760FC0120838CE790E02CE730E0F90190
:1009400020812064FC0120838CE790E02CE730E0DC
:10095000F90120812F77FC0120838BE790E02BE7C2
:1009600030E0F9012081287FFC0120838AE790E0B4
:100970002AE730E0F90120812062FC0120838AE728
:1009800090E02AE730E0F90120812068FC01208313
:100990008AE790E02AE730E0F90120812064FC0139
:1009A00020838CE3898388E78A8382E88B838CE8C1
:1009B0008C8386E98D8380EA8E838AEA8F8384EB39
:1009C00088878EEB898788E790E0FC018081282F5B
:1009D00030E089E790E0FC018081882F90E0982F3B
:1009E0008827822B932B9093890280938802809191
:1009F000880290918902AA2797FDA095BA2FBC0181
:100A0000CD010E945313DC01CB012AE038E240EA19
:100A10005BE3BC01CD010E940714DC01CB01809394
:100A2000000190930101A0930201B0930301809112
:100A30008A0290918B02009731F180918C02909103
:100A40008D02A0918E02B0918F0220919002309180
:100A500091024091920250919302BC01CD010E94FB
:100A6000B712DC01CB012DEC3CEC4CEC5DE3BC019E
:100A7000CD010E94031418160CF0B3C110928B0222
:100A800010928A02AEC18091000190910101A09163
:100A90000201B091030120E030E040E250E4BC01EB
:100AA000CD010E94031418160CF09BC181E090E068
:100AB000909395028093940281E090E090938B0252
:100AC00080938A0280918C0290918D02A0918E0277
:100AD000B0918F028093900290939102A093920222
:100AE000B093930280918602909187020196909331
:100AF000870280938602009186021091870280917E
:100B0000900290919102A0919202B0919302BC0147
:100B1000CD010E942013DC01CB019C01C801880F8C
:100B2000991F885B9D4FFC01318320838091860251
:100B3000909187028D31910524F0109287021092D6
:100B400086022091860230918702809184029091E2
:100B500085022817390751F480918402909185020B
:100B6000019690938502809384020AC009C0809107
:100B7000840290918502019690938502809384026D
:100B80008091840290918502880F991F885B9D4F08
:100B9000FC0180819181AA2797FDA095BA2FBC0105
:100BA000CD010E945313DC01CB0123E333E343EC7B
:100BB00050E4BC01CD010E94B812DC01CB016C01F4
:100BC0007D0180918C0290918D02A0918E02B09156
:100BD0008F02BC01CD010E942013DC01CB01AA27AA
:100BE00097FDA095BA2FBC01CD010E945313DC01E3
:100BF000CB019C01AD01C701B6010E941C138823E3
:100C000064F4209184023091850280918602909153
:100C100087022817390709F0AACF809184029091A2
:100C200085028E31910524F0109285021092840283
:100C300020918602309187028091840290918502F2
:100C4000281739078CF02091860230918702809115
:100C5000840290918502A901481B590BCA01909307
:100C600097028093960213C080918602909187022A
:100C70009C01225E3F4F8091840290918502F90190
:100C8000E81BF90BCF019093970280939602809115
:100C90009602909197028130910561F48981882FA5
:100CA00090E09C018091CF039091D003B9010E9404
:100CB000881097C08091960290919702823091059A
:100CC00061F48A81882F90E09C018091CF039091FC
:100CD000D003B9010E94881084C08091960290913F
:100CE00097028330910561F48B81882F90E09C01FD
:100CF0008091CF039091D003B9010E94881071C0F8
:100D000080919602909197028430910561F48C81D4
:100D1000882F90E09C018091CF039091D003B9017E
:100D20000E9488105EC08091960290919702853053
:100D3000910561F48D81882F90E09C018091CF0313
:100D40009091D003B9010E9488104BC08091960207
:100D5000909197028630910561F48E81882F90E002
:100D60009C018091CF039091D003B9010E9488101B
:100D700038C080919602909197028730910561F476
:100D80008F81882F90E09C018091CF039091D003B8
:100D9000B9010E94881025C0809196029091970217
:100DA0008830910561F48885882F90E09C018091BE
:100DB000CF039091D003B9010E94881012C0809196
:100DC0009602909197028930910559F48985882F70
:100DD00090E09C018091CF039091D003B9010E94D3
:100DE000881080E090E0A0E0BFE38A879B87AC8713
:100DF000BD8720E030E04AE753E46A857B858C8537
:100E00009D850E940714DC01CB018E879F87A88BEC
:100E1000B98B20E030E040E85FE36E857F8588890C
:100E200099890E941C1388232CF481E090E09B8B0D
:100E30008A8B3FC020E03FEF4FE757E46E857F8508
:100E4000888999890E94031418164CF520E030E037
:100E500040E251E46A857B858C859D850E9407145C
:100E6000DC01CB01BC01CD010E942513DC01CB01CB
:100E70009B8B8A8B0FC089E190E09D8B8C8B8C893A
:100E80009D890197F1F79D8B8C8B8A899B890197AE
:100E90009B8B8A8B8A899B89009769F714C06E8522
:100EA0007F85888999890E942513DC01CB019B8B62
:100EB0008A8B8A899B899F8B8E8B8E899F890197CC
:100EC000F1F79F8B8E8B80918C0290918D02A09177
:100ED0008E02B0918F022FE632E143E05AE3BC016B
:100EE000CD010E94B812DC01CB0180938C0290935B
:100EF0008D02A0938E02B0938F02789464CDCF932D
:100F0000DF93CDB7DEB7F89480E690E0FC01108265
:100F100085E290E025E230E0F90120812F7DFC019F
:100F2000208385E290E025E230E0F90120812F7EE8
:100F3000FC01208384E290E024E230E0F90120818A
:100F40002062FC01208384E290E024E230E0F90199
:100F500020812061FC01208384E490E023E0FC01F7
:100F6000208385E490E02DE0FC01208387E490E07D
:100F700026E2FC0120838EE690E02EE630E0F901C7
:100F800020812160FC01208384E690E024E630E0AB
:100F9000F90120812F7DFC01208385EC90E0FC018C
:100FA000108284EC90E027E6FC01208381EC90E045
:100FB00028E1FC01208382EC90E026E0FC01208304
:100FC0007894DF91CF910895CF93DF93CDB7DEB7BB
:100FD0002C970FB6F894DEBF0FBECDBF9E838D83D6
:100FE00078876F835A8749873C872B8789859A85BD
:100FF0009A8389838D819E819C838B8389819A8149
:101000009C01215031093A8329832B81FC012083E3
:1010100089819A819C01215031093A8329832B814E
:101020003C81232F3327FC01208389819A819C01F5
:10103000215031093A832983FC01108289819A81E8
:101040009C01215031093A832983FC011082898156
:101050009A819C01215031093A832983FC01108235
:1010600089819A819C01215031093A832983FC01AD
:10107000108289819A819C01215031093A83298308
:10108000FC01108289819A819C01215031093A83A7
:101090002983FC01108289819A819C0121503109A8
:1010A0003A832983FC01108289819A819C01215015
:1010B00031093A832983FC01108289819A819C013C
:1010C000215031093A832983FC01108289819A8158
:1010D0009C01215031093A832983FC0110828981C6
:1010E0009A819C01215031093A832983FC011082A5
:1010F00089819A819C01215031093A832983FC011D
:10110000108289819A819C01215031093A83298377
:10111000FC01108289819A819C01215031093A8316
:101120002983FC01108289819A819C012150310917
:101130003A832983FC01108289819A819C01215084
:1011400031093A832983FC01108289819A819C01AB
:10115000215031093A832983FC01108289819A81C7
:101160009C01215031093A832983FC011082898135
:101170009A819C01215031093A832983FC01108214
:1011800089819A819C01215031093A832983FC018C
:10119000108289819A819C01215031093A832983E7
:1011A000FC01108289819A819C01215031093A8386
:1011B0002983FC01108289819A819C012150310987
:1011C0003A832983FC01108289819A819C012150F4
:1011D00031093A832983FC0110828F8198859C8391
:1011E0008B8389819A819C01215031093A8329831B
:1011F0002B81FC01208389819A819C012150310936
:101200003A8329832B813C81232F3327FC012083C0
:1012100089819A819C01215031093A832983FC01FB
:10122000108289819A819C01215031093A83298356
:10123000FC01108289819A819C01215031093A83F5
:101240002983FC01108289819A819C0121503109F6
:101250003A832983FC01108289819A819C01215063
:1012600031093A832983FC01108289819A819C018A
:10127000215031093A832983FC01108289819A81A6
:101280009C01215031093A83298320E8FC01208305
:1012900089819A812C960FB6F894DEBF0FBECDBF20
:1012A000DF91CF910895CF93DF9300D0CDB7DEB714
:1012B0009A8389830F900F90DF91CF910895CF93F8
:1012C000DF93CDB7DEB7DF91CF910895CF93DF9352
:1012D000CDB7DEB7DF91CF910895CF93DF93CDB730
:1012E000DEB72C970FB6F894DEBF0FBECDBF99873F
:1012F00088877B876A874C8788859985FC018585E7
:10130000882F90E0885B9E4FFC01808189838981D2
:10131000882F90E0805C9E4FFC0180818A838981C8
:10132000882F90E028853985820F931F0296FC0153
:101330008081882F90E0885B9E4FFC0180818B83A9
:101340008B81882F90E0805C9E4FFC0180818C8394
:101350008981982F990F990F990F8B81890F8D8310
:101360008981882F90E02981222F30E04885598596
:10137000240F351F2E5F3F4FF9012081322F2C8122
:1013800020952323422F28853985280F391F2E5F6A
:101390003F4FF901408328853985820F931F0296BC
:1013A000FC018081882369F488859985FC01858505
:1013B000982F8A8180958923282F88859985FC011B
:1013C00025878D81882F90E0880F991F885F994F1E
:1013D000FC01808191819F838E838E819F81FC019E
:1013E000138612868E819F81FC01178216828E8160
:1013F0009F812A853B85FC01318720878E819F81D3
:10140000FC018485982F8C8580958923282F8E81D7
:101410009F81FC0124878E819F81FC018485882324
:10142000B1F49091AF058A81892B8093AF058981B2
:10143000882F90E02981222F30E020553A4FF90182
:1014400030812C81232B80559A4FFC0120832C96D0
:101450000FB6F894DEBF0FBECDBFDF91CF910895D8
:10146000CF93DF9300D0CDB7DEB79A838983809185
:10147000BB059091BC0529813A81FC013783268305
:101480008091BB059091BC05FC018785882F90E079
:101490002091BB053091BC05F9012785222F30E052
:1014A00020553A4FF9012081422F2091BB05309100
:1014B000BC05F901208920952423422F9C01205549
:1014C0003A4FF901408380559A4FFC01808188236F
:1014D00069F48091BB059091BC05FC018189982F2E
:1014E00090958091AF0589238093AF058091BB05CE
:1014F0009091BC05FC018785882F90E02091BB0569
:101500003091BC05F9012785222F30E049815A81AD
:10151000240F351F2E5F3F4FF90140812091BB05FD
:101520003091BC05F9012089422B29813A81820F33
:10153000931F0296FC01408389819A81FC012585D5
:101540008091BB059091BC05FC018189282B898184
:101550009A81FC0125870F900F90DF91CF9108951C
:10156000CF93DF9300D0CDB7DEB79A838983809184
:10157000BB059091BC05FC018785882F90E02091E8
:10158000BB053091BC05F9012785222F30E0498148
:101590005A81240F351F2E5F3F4FF9012081422FC2
:1015A0002091BB053091BC05F901208920952423A9
:1015B000422F29813A81280F391F2E5F3F4FF901B1
:1015C000408329813A81820F931F0296FC0180811A
:1015D000882391F489819A81FC018585282F809147
:1015E000BB059091BC05FC01818980958223282F41
:1015F00089819A81FC0125878091BB059091BC056A
:10160000FC0114868091BB059091BC05FC011782FA
:1016100016820F900F90DF91CF910895CF93DF93B3
:1016200000D01F92CDB7DEB79B838A838A819B81CE
:10163000FC01158619820DC08981882F90E02A81CE
:101640003B81820F931F0296FC01108289818F5F7C
:1016500089838981883080F30F900F900F90DF91FC
:10166000CF910895CF93DF9300D0CDB7DEB710921E
:10167000BD051092BE051092BF051092C0051092D4
:10168000BA05109297051092AC0510929805109229
:10169000990510929A0510929B0510929C05109244
:1016A000A1051092A2051092A3051092A405109214
:1016B000AF051A8219820BC089819A8180559A4F91
:1016C000FC01108289819A8101969A83898389819C
:1016D0009A818830910580F310929E0510929D05A5
:1016E0001092AE051092AD051092BC051092BB058C
:1016F0001092A00510929F051A8219820EC089814E
:101700009A81880F991F885F994FFC01118210827E
:1017100089819A8101969A83898389819A8180340B
:10172000910568F31A82198228C089819A810196ED
:10173000880F991F9C01220F331F220F331F220F86
:10174000331F820F931F9C01275E3C4F89819A8132
:10175000880F991FAC01440F551F440F551F440FAC
:10176000551F840F951F855E9C4FFC01318320839C
:1017700089819A8101969A83898389819A818930A6
:10178000910598F21092BE031092BD0389E193E097
:101790009093AA058093A9051A82198229C089818C
:1017A0009A810196880F991F9C01220F331F220FE7
:1017B000331F220F331F281B390BA9014F535A4FD8
:1017C00089819A81880F991F9C01220F331F220F54
:1017D000331F220F331F281B390BC9018F539A4F18
:1017E000FC015183408389819A8101969A83898380
:1017F00089819A818430910590F21092FA051092B5
:10180000F90581EC95E09093B9058093B8052FE335
:1018100048ED52E060E070E083E59DE00E94D31166
:101820002EE348E153E060E070E080E79DE00E9435
:10183000D3110F900F90DF91CF910895CF93DF9345
:10184000CDB7DEB7F8948091BA0581508093BA0580
:101850009091BA0580919705892B882309F04BC098
:101860008091AF05882F90E0885B9E4FFC018081BE
:101870008093980280919802282F220F220F220F26
:1018800080919802882F90E080559A4FFC018081CA
:10189000882F90E0885B9E4FFC018081820F8093AF
:1018A0009D0590919D0580919E05981721F180914D
:1018B0009D05882F90E0880F991F885F994FFC0144
:1018C000808191819093AE058093AD058091A105B3
:1018D0009091A205A091A305B091A4050196A11D28
:1018E000B11D8093A1059093A205A093A305B09389
:1018F000A4050E94E0007894DF91CF910895CF93E2
:10190000DF931F92CDB7DEB7F89490919705809141
:10191000BA05892B882309F048C08091AF05882F2C
:1019200090E0885B9E4FFC01808189838981282F0C
:10193000220F220F220F8981882F90E080559A4F25
:10194000FC018081882F90E0885B9E4FFC018081A4
:10195000820F80939D0590919D0580919E0598171B
:1019600021F180919D05882F90E0880F991F885F55
:10197000994FFC01808191819093AE058093AD05D4
:101980008091A1059091A205A091A305B091A40515
:101990000196A11DB11D8093A1059093A205A0936E
:1019A000A305B093A4050E94830078940F90DF9163
:1019B000CF910895CF93DF9300D0CDB7DEB780915C
:1019C00098058823D9F58091AF05882F90E0885B32
:1019D0009E4FFC01808189838981882F90E080550A
:1019E0009A4FFC018081882F90E0885B9E4FFC011C
:1019F00080818A838981982F990F990F990F8A8105
:101A0000890F80939D0580919D0580939E0580910F
:101A10009D05882F90E0880F991F885F994FFC01E2
:101A2000808191819093AE058093AD058091AD0545
:101A30009091AE059093BC058093BB050E94530026
:101A40000F900F90DF91CF910895CF93DF93CDB793
:101A5000DEB782E090E00E946312F894109299053C
:101A600010929A0510929B0510929C05789488EC30
:101A700090E00E946312F8948091990590919A05E4
:101A8000A0919B05B0919C058093A5059093A60518
:101A9000A093A705B093A80581E0809307067894EA
:101AA000DF91CF910895CF93DF9300D0CDB7DEB70C
:101AB0009A838983F8948091990590919A05A091D1
:101AC0009B05B0919C050196A11DB11D80939905C0
:101AD00090939A05A0939B05B0939C057894EACFC8
:101AE000CF93DF93CDB7DEB72B970FB6F894DEBF59
:101AF0000FBECDBF9F838E8304C080E991E00E941A
:101B00006312809107068823C1F3F89480919905A8
:101B100090919A05A0919B05B0919C0580938806B1
:101B200090938906A0938A06B0938B0680919905BD
:101B300090919A05A0919B05B0919C0589839A8309
:101B4000AB83BC831092990510929A0510929B0565
:101B500010929C0578948091A5059091A605A0917E
:101B6000A705B091A8050097A105B10579F12981D4
:101B70003A814B815C8184E690E0DC010E948C1408
:101B8000DC01CB012091A5053091A6054091A70568
:101B90005091A805BC01CD010E946A14DA01C90167
:101BA00094E6292F281B822F8D838D81853624F082
:101BB00084E68093AB050CC08D8188231CF41092C1
:101BC000AB0506C08D818093AB0502C01092AB05BA
:101BD0000E945F0988EC90E00E94631296CFCF923A
:101BE000DF92EF92FF920F931F93CF93DF93CDB7C6
:101BF000DEB72F970FB6F894DEBF0FBECDBF8B8335
:101C00007D836C835F834E83398728871B870A8790
:101C1000FD86EC86DF86CE86F8948091A9059091AA
:101C2000AA059A83898389819A81009709F4AAC0B9
:101C300089819A81FC01828193819093AA05809386
:101C4000A905789489819A812C813D81FC01318399
:101C5000208389819A812B81FC01258789819A8142
:101C6000FC01148689819A81FC01138612868B817E
:101C7000282F26952695269589819A81FC0127870C
:101C800089819A81FC018785882F90E0805C9E4F36
:101C9000FC01208189819A81FC01218B8B81282F75
:101CA000277089819A81FC01268789819A81FC01AC
:101CB0008685882F90E0805C9E4FFC012081898181
:101CC0009A81FC01208B89819A81FC0117821682FE
:101CD00089819A81FC0111861086F8948B81882F66
:101CE00090E0880F991F885F994F29813A81FC0104
:101CF0003183208320919F053091A00589819A81AD
:101D0000FC013383228389819A81FC01158214822C
:101D100080919F059091A005009749F080919F05C3
:101D20009091A00529813A81FC0135832483898122
:101D30009A819093A00580939F0589819A81FC01E7
:101D400091898091AF05892B8093AF0589819A8114
:101D5000FC018785882F90E029813A81F901278548
:101D6000222F30E020553A4FF901408129813A81F4
:101D7000F9012089242B80559A4FFC012083789407
:101D800080E002C0789486E42F960FB6F894DEBF08
:101D90000FBECDBFDF91CF911F910F91FF90EF90BC
:101DA000DF90CF900895CF93DF9300D0CDB7DEB70B
:101DB0000E94660980919F059091A0059A8389836E
:101DC00059C0F89489819A81FC0182859385009796
:101DD00009F448C089819A81FC01828593859C0120
:101DE0002150310989819A81FC01338722878981B9
:101DF0009A81FC01828593850097A1F589819A815A
:101E0000FC018485882F90E088709927009719F548
:101E100089819A81FC0191898091AF05892B8093FA
:101E2000AF0589819A81FC018785882F90E02981FF
:101E30003A81F9012785222F30E020553A4FF901E8
:101E4000408129813A81F9012089242B80559A4FBC
:101E5000FC01208307C089819A8121E030E0FC01E8
:101E60003387228789819A81FC01828193819A83B9
:101E70008983789489819A81FC0185858F3309F063
:101E8000A0CFF8948091BD059091BE05A091BF05AB
:101E9000B091C0050196A11DB11D8093BD05909321
:101EA000BE05A093BF05B093C00578940F900F9026
:101EB000DF91CF910895CF93DF9300D000D0CDB7BD
:101EC000DEB79C838B83F8948B819C81FC01848595
:101ED000813021F0789480E090E013C08B819C8168
:101EE000FC01808191819A83898389819A810097FD
:101EF00029F08B819C81FC01118210827894898168
:101F00009A810F900F900F900F90DF91CF910895CD
:101F1000CF93DF9300D000D0CDB7DEB79C838B8307
:101F2000F8948091B8059091B9059A83898380913E
:101F3000B8059091B905009759F08091B805909136
:101F4000B905FC01808191819093B9058093B80512
:101F5000789489819A81009781F089819A8121E022
:101F6000FC01248789819A812B813C81FC0131838A
:101F7000208389819A810E940E0B89819A810F901A
:101F80000F900F900F90DF91CF910895CF93DF9333
:101F9000CDB7DEB728970FB6F894DEBF0FBECDBF22
:101FA0009C838B837E836D8358874F83F8948B81CA
:101FB0009C81FC018485813049F078948F819885DB
:101FC00021E0FC01208380E090E099C08B819C811E
:101FD000FC01808191819A83898389819A8100970C
:101FE00059F08B819C81FC011182108278948F8141
:101FF0009885FC01108281C08091BA05882339F050
:1020000078948F81988522E0FC01208376C08091AE
:10201000BB059091BC052091BB053091BC05F90131
:1020200024852260FC0124878091BB059091BC052A
:102030002D813E81FC01338722878B819C810E9408
:10204000300A78940E947F0CF8948091BB0590919F
:10205000BC05FC01808591859A83898389819A8159
:102060000097D1F08091BB059091BC05FC011186D1
:1020700010868091BB059091BC05FC01148680916F
:10208000BB059091BC05FC011782168278948F8164
:102090009885FC01108231C08091BB059091BC05F0
:1020A000FC018485882F90E082709927009769F061
:1020B0008B819C810E94B00A78941A8219828F8148
:1020C00098852AE0FC01208318C08B819C81FC014B
:1020D000808191819A8389838B819C81FC0111820B
:1020E00010828091BB059091BC05FC01178216827D
:1020F00078948F819885FC01108289819A81289635
:102100000FB6F894DEBF0FBECDBFDF91CF9108951B
:10211000CF93DF9300D000D0CDB7DEB79A83898309
:102120007C836B83F89489819A81FC01848581305A
:1021300019F0789481E026C089819A81FC01858517
:10214000882369F02B813C8189819A8142E0B90121
:102150000E946D0978940E947F0C80E013C08981F1
:102160009A81FC0180819181009719F0789484E133
:1021700009C089819A812B813C81FC0131832083B4
:10218000789480E00F900F900F900F90DF91CF9197
:102190000895CF93DF9300D000D0CDB7DEB79C83F6
:1021A0008B83F8948091B8059091B9059A838983BF
:1021B0008091B8059091B905009759F08091B805C4
:1021C0009091B905FC01808191819093B90580932C
:1021D000B805789489819A81009781F089819A81E4
:1021E00023E0FC01248789819A812B813C81FC01B9
:1021F0003387228789819A810E940E0B89819A8177
:102200000F900F900F900F90DF91CF910895CF9383
:10221000DF9300D000D000D0CDB7DEB79A8389839A
:102220007C836B835E834D83F89489819A81FC0162
:102230008485833031F078948D819E8121E0FC018A
:10224000208389819A81FC0182859385009799F08A
:1022500089819A81FC01828593859C0121503109F5
:1022600089819A81FC013387228778948D819E81B0
:10227000FC0110824CC08091BA05882339F0789413
:102280008D819E8122E0FC01208341C08091BB05AD
:102290009091BC052091BB053091BC05F9012485C6
:1022A0002160FC0124878091BB059091BC052B81A6
:1022B0003C81FC013387228789819A810E94300A00
:1022C00078940E947F0CF8948091BB059091BC0596
:1022D000FC018485882F90E081709927009759F040
:1022E00089819A810E94B00A78948D819E812AE02A
:1022F000FC0120830CC08091BB059091BC05FC01C2
:102300001782168278948D819E81FC011082269618
:102310000FB6F894DEBF0FBECDBFDF91CF91089509
:10232000CF93DF9300D0CDB7DEB79A838983F8943B
:1023300089819A81FC018485833019F0789481E049
:102340002DC089819A81FC018585882361F089816E
:102350009A8141E060E070E00E946D0978940E94EB
:102360007F0C80E01BC089819A81FC018285938566
:102370008F3FFFEF9F0781F089819A81FC01828561
:1023800093859C012F5F3F4F89819A81FC013387A0
:102390002287789480E002C0789482E30F900F90B7
:1023A000DF91CF910895CF92DF92EF92FF920F933A
:1023B0001F93CF93DF93CDB7DEB72A970FB6F8946C
:1023C000DEBF0FBECDBF9D838C837F836E83598715
:1023D00048872A878A85803410F08AE265C0F8949D
:1023E0008A85882F90E0880F991F885F994FFC019C
:1023F00080819181009709F055C08A85882F90E0EF
:10240000880F991F885F994F21E030E0FC013183EC
:1024100020837894488559856E817F818C819D8148
:1024200020E030E00E94E4079A83898389819A81C1
:10243000C12CD12CE12CF12C00E010E020E030E0A8
:1024400040E050E0BC018A850E94EF0D8B838B81B8
:102450008823D1F4F8948091AC058F5F8093AC050C
:102460008A85882F90E0880F991F885F994FFC011B
:10247000808191810E9453097894809198058823E6
:1024800079F00E947F0C0CC0F8948A85882F90E028
:10249000880F991F885F994FFC01118210827894F0
:1024A0008B8102C0789488E22A960FB6F894DEBF3A
:1024B0000FBECDBFDF91CF911F910F91FF90EF9095
:1024C000DF90CF900895CF93DF9300D0CDB7DEB7E4
:1024D0009A83898389819A81009709F443C0F8948B
:1024E0008091BB059091BC05FC018785882F90E009
:1024F0002091BB053091BC05F9012785222F30E0E2
:1025000020553A4FF9012081422F2091BB0530918F
:10251000BC05F901208920952423422F9C012055D8
:102520003A4FF901408380559A4FFC0180818823FE
:1025300069F48091BB059091BC05FC018189982FBD
:1025400090958091AF0589238093AF058091BB055D
:102550009091BC0529813A81FC01338722877894C8
:102560000E947F0C0F900F90DF91CF9108955058EB
:10257000BB27AA270ED00DC1FED030F003D120F02A
:1025800031F49F3F11F41EF4F3C00EF4E095E7FB25
:10259000E9C0E92F0FD180F3BA17620773078407E8
:1025A000950718F071F49EF527C10EF4E0950B2EF7
:1025B000BA2FA02D0B01B90190010C01CA01A00195
:1025C0001124FF27591B99F0593F50F4503E68F1F0
:1025D0001A16F040A22F232F342F4427585FF3CF31
:1025E000469537952795A795F0405395C9F77EF402
:1025F0001F16BA0B620B730B840BBAF09150A1F04B
:10260000FF0FBB1F661F771F881FC2F70EC0BA0FD0
:10261000621F731F841F48F4879577956795B79558
:10262000F7959E3F08F0B3CF9395880F08F0992750
:10263000EE0F97958795089571D008F481E008957D
:1026400004D06894B111D9C00895BCD088F09F57C8
:1026500090F0B92F9927B751A0F0D1F0660F771FEE
:10266000881F991F1AF0BA95C9F712C0B13081F0CE
:10267000C3D0B1E00895C0C0672F782F8827B85F16
:1026800039F0B93FCCF3869577956795B395D9F72F
:102690003EF490958095709561957F4F8F4F9F4F39
:1026A0000895E89409C097FB3EF490958095709545
:1026B00061957F4F8F4F9F4F9923A9F0F92F96E98E
:1026C000BB279395F695879577956795B795F11103
:1026D000F8CFFAF4BB0F11F460FF1BC06F5F7F4FA0
:1026E0008F4F9F4F16C0882311F096E911C07723B2
:1026F00021F09EE8872F762F05C0662371F096E8BB
:10270000862F70E060E02AF09A95660F771F881F89
:10271000DAF7880F9695879597F90895990F00082D
:10272000550FAA0BE0E8FEEF16161706E807F907A3
:10273000C0F012161306E407F50798F0621B730B3E
:10274000840B950B39F40A2661F0232B242B252BBF
:1027500021F408950A2609F4A140A6958FEF811D62
:10276000811D089597F99F6780E870E060E0089503
:102770009FEF80EC089500240A9416161706180699
:102780000906089500240A94121613061406050675
:102790000895092E0394000C11F4882352F0BB0F06
:1027A00040F4BF2B11F460FF04C06F5F7F4F8F4F69
:1027B0009F4F089557FD9058440F551F59F05F3FA4
:1027C00071F04795880F97FB991F61F09F3F79F053
:1027D00087950895121613061406551FF2CF4695D5
:1027E000F1DF08C0161617061806991FF1CF869557
:1027F0007105610508940895E894BB27662777273B
:10280000CB0197F908958ADF08F48FEF08950BD074
:10281000C0CFB1DF28F0B6DF18F0952309F0A2CFC2
:10282000A7CF1124EACFC6DFA0F3959FD1F3950F70
:1028300050E0551F629FF001729FBB27F00DB11D44
:10284000639FAA27F00DB11DAA1F649F6627B00DD4
:10285000A11D661F829F2227B00DA11D621F739FBD
:10286000B00DA11D621F839FA00D611D221F749FCB
:102870003327A00D611D231F849F600D211D822F12
:10288000762F6A2F11249F5750408AF0E1F0882359
:102890004AF0EE0FFF1FBB1F661F771F881F915066
:1028A0005040A9F79E3F510570F05CCFA6CF5F3F27
:1028B000ECF3983EDCF3869577956795B795F79599
:1028C000E7959F5FC1F7FE2B880F911D9695879521
:1028D00097F90895A1E21A2EAA1BBB1BFD010DC09A
:1028E000AA1FBB1FEE1FFF1FA217B307E407F507C0
:1028F00020F0A21BB30BE40BF50B661F771F881F9C
:10290000991F1A9469F760957095809590959B0131
:10291000AC01BD01CF0108950E949714A59F900DB1
:10292000B49F900DA49F800D911D11240895A29F26
:10293000B001B39FC001A39F700D811D1124911D93
:10294000B29F700D811D1124911D0895FB01DC01C2
:0E29500001900D920020E1F70895F894FFCF5A
:10295E00000080BF4E6F206572726F7220737461BB
:10296E007465200D0A0048696768206572726F727F
:10297E00207374617465200D0A004D656469756D70
:10298E00206572726F72207374617465200D0A0077
:10299E000102040810204080000001000200010026
:1029AE00030001000200010004000100020001000A
:1029BE0003000100020001000500010002000100F9
:1029CE0003000100020001000400010002000100EA
:1029DE0003000100020001000600010002000100D8
:1029EE0003000100020001000400010002000100CA
:1029FE0003000100020001000500010002000100B9
:102A0E0003000100020001000400010002000100A9
:102A1E000300010002000100070001000200010096
:102A2E000300010002000100040001000200010089
:102A3E000300010002000100050001000200010078
:102A4E000300010002000100040001000200010069
:102A5E000300010002000100060001000200010057
:102A6E000300010002000100040001000200010049
:102A7E000300010002000100050001000200010038
:102A8E000300010002000100040001000200010029
:082A9E00030001000200010029
:00000001FF
